:020000040800F2
:1000000078060020290200083102000833020008A7
:10001000350200083702000839020008000000001D
:100020000000000000000000000000003B0200088B
:100030003D020008000000003F02000841020008E5
:10004000430200084302000843020008430200087C
:10005000430200084302000843020008430200086C
:10006000430200084302000843020008430200085C
:10007000430200084302000843020008430200084C
:10008000430200084302000843020008430200083C
:10009000430200084302000843020008430200082C
:1000A000430200084302000843020008430200081C
:1000B000430200084302000843020008430200080C
:1000C00043020008430200084302000843020008FC
:1000D000430200082D040008430200084302000800
:1000E00043020008430200084302000843020008DC
:1000F00043020008430200084302000843020008CC
:1001000000000000000000000000000043020008A2
:1001100043020008430200084302000843020008AB
:10012000430200084302000843020008430200089B
:100130004302000843020008000000000000000025
:1001400043020008430200084302000800000000C8
:10015000000000000000000000000000000000009F
:1001600000000000000000004302000843020008F5
:100170004302000800000000000000000000000032
:10018000000000004302000800F002F800F03CF814
:100190000AA090E8000C82448344AAF10107DA45E2
:1001A00001D100F031F8AFF2090EBAE80F0013F0F8
:1001B000010F18BFFB1A43F001031847800300002A
:1001C000A0030000103A24BF78C878C1FAD85207BB
:1001D00024BF30C830C144BF04680C6070470000C1
:1001E0000023002400250026103A28BF78C1FBD840
:1001F000520728BF30C148BF0B6070471FB500F0E1
:1002000097F91FBD10B510BD00F031F81146FFF78A
:10021000F5FF00F01FF900F04FF803B4FFF7F2FF0D
:1002200003BC00F057F80000094880470948004720
:10023000FEE7FEE7FEE7FEE7FEE7FEE7FEE7FEE796
:10024000FEE7FEE704480549054A064B70470000F3
:10025000A903000889010008780000207806002022
:10026000780200207802002070477047704775467A
:1002700000F02CF8AE4605006946534620F0070012
:10028000854618B020B5FFF7DDFFBDE820404FF0F0
:1002900000064FF000074FF000084FF0000B21F070
:1002A0000701AC46ACE8C009ACE8C009ACE8C0093D
:1002B000ACE8C0098D46704710B50446AFF3008026
:1002C0002046BDE81040FFF7A8BF00000048704777
:1002D0001800002001491820ABBEFEE726000200EE
:1002E000704700000CB50020019000902C48006879
:1002F00040F480302A49086000BF2948006800F4B3
:10030000003000900198401C0190009818B90198A5
:10031000B0F5A06FF1D12248006800F4003010B1B0
:100320000120009001E0002000900098012836D1C3
:1003300012201C4908601A4840681949486008465C
:10034000406848600846406840F48060486008465D
:10035000406820F47C1048600846406840F4E8108B
:1003600048600846006840F08070086000BF0C4894
:10037000006800F000700028F9D00948406820F0BB
:100380000300074948600846406840F002004860A2
:1003900000BF0348406800F00C000828F9D10CBDEC
:1003A000001002400020024010B51B48006840F4D5
:1003B0007000194908601948006840F001001749A9
:1003C00008600846406816490840144948600846D5
:1003D000006814490840114908600846006820F484
:1003E000802008600846406820F4FE004860084607
:1003F000C06A20F00F00C8620846006B0A49084036
:100400000649086300208860FFF76CFF4FF000602A
:1004100001498039086010BD88ED00E000100240FD
:100420000CC07FF8FFFFF6FECCFC00FF0748006819
:1004300000F0200040B10548006820F0200003498A
:100440000860012002490870704700001C38014014
:10045000140000203048406940F400302E494861C3
:100460004FF09040006840F400204FF09041086049
:100470000846006840F4001008600846406A40F4EE
:10048000EE614FF0904041622348806940F4804023
:1004900021498861214800684FF41651B0FBF1F002
:1004A0001F4908801E480C38006840F00D001C49A8
:1004B0000C3908600846006840F0200008602520DC
:1004C00000F01F030121994043099B0003F1E02341
:1004D000C3F8001100BF0721002807DA0B071D0E23
:1004E000104B00F00F04241F1D5503E00B071C0EDA
:1004F0000D4B1C5400BF0DE00C480078012809D1B9
:1005000000200A490870064818300088C2B2044822
:100510001C300280F0E700000010024000000020C4
:100520000C38014018ED00E000E400E01400002069
:100530004FF04070E1EE100A704700005C050008C3
:100540000000002018000000C40100087405000825
:100550001800002060060000E001000800A24A0424
:100560000000000000000000010203040607080963
:040570000000000087
:0400000508000229C4
:00000001FF
